:100000000C9462000C948A000C948A000C948A0070
:100010000C948A000C948A000C948A000C948A0038
:100020000C948A000C948A000C948A000C948A0028
:100030000C948A000C948A000C948A000C948A0018
:100040000C9495030C948A000C9405040C94DF0323
:100050000C948A000C948A000C948A000C948A00F8
:100060000C948A000C948A000000000024002700F1
:100070002A0000000000250028002B0000000000DE
:1000800023002600290004040404040404040202DA
:100090000202020203030303030301020408102007
:1000A0004080010204081020010204081020000012
:1000B0000008000201000003040700000000000027
:1000C0000000680711241FBECFEFD8E0DEBFCDBF10
:1000D00012E0A0E0B1E0E8E8FFE002C005900D9278
:1000E000A832B107D9F722E0A8E2B2E001C01D9220
:1000F000A33DB207E1F710E0C2E6D0E004C02197CB
:10010000FE010E94B707C136D107C9F70E94370424
:100110000C94C2070C940000833081F028F48130E5
:1001200099F08230A1F008958730A9F08830B9F0B5
:100130008430D1F4809180008F7D03C08091800055
:100140008F7780938000089584B58F7702C084B53F
:100150008F7D84BD08958091B0008F7703C080911A
:10016000B0008F7D8093B0000895CF93DF93282F48
:1001700030E0F901E255FF4F8491F901E656FF4F57
:10018000D491F901EA57FF4FC491CC2391F081112A
:100190000E948C00EC2FF0E0EE0FFF1FE458FF4FA1
:1001A000A591B491EC91ED2381E090E021F480E001
:1001B00002C080E090E0DF91CF9108951F93CF932C
:1001C000DF93282F30E0F901E255FF4F8491F901C8
:1001D000E656FF4FD491F901EA57FF4FC491CC2363
:1001E000C9F0162F81110E948C00EC2FF0E0EE0F69
:1001F000FF1FEE58FF4FA591B4918FB7F8941111DE
:1002000005C09C91ED2FE095E92302C0EC91ED2B08
:10021000EC938FBFDF91CF911F910895CF93DF9320
:1002200090E0FC01E656FF4F2491FC01EA57FF4F96
:100230008491882361F190E0880F991FFC01E859AF
:10024000FF4FC591D491FC01EE58FF4FA591B49199
:10025000611109C09FB7F894888120958223888313
:10026000EC912E230BC0623061F49FB7F894388173
:10027000822F809583238883EC912E2B2C939FBF14
:1002800006C08FB7F894E8812E2B28838FBFDF91AB
:10029000CF9108953FB7F894809132029091330244
:1002A000A0913402B091350226B5A89B05C02F3F1E
:1002B00019F00196A11DB11D3FBFBA2FA92F982F8C
:1002C0008827820F911DA11DB11DBC01CD0142E007
:1002D000660F771F881F991F4A95D1F708958F924F
:1002E0009F92AF92BF92CF92DF92EF92FF926B01FB
:1002F0007C010E944A014B015C01C114D104E1045C
:10030000F104F1F00E944A01DC01CB01881999093E
:10031000AA09BB09883E9340A105B10570F321E00D
:10032000C21AD108E108F10888EE880E83E0981E11
:10033000A11CB11CC114D104E104F10419F7DDCFF3
:10034000FF90EF90DF90CF90BF90AF909F908F90F5
:100350000895CF92DF92EF92FF920F931F93CF9366
:10036000DF936C017A018B01C0E0D0E0CE15DF0590
:1003700089F0D8016D918D01D601ED91FC9101902C
:10038000F081E02DC6010995892B11F47E0102C090
:100390002196ECCFC701DF91CF911F910F91FF9074
:1003A000EF90DF90CF900895FC01918D828D98178A
:1003B00061F0828DDF01A80FB11D5D968C91928D49
:1003C0009F5F9F73928F90E008958FEF9FEF089546
:1003D000FC01918D828D981731F0828DE80FF11D0F
:1003E000858D90E008958FEF9FEF0895FC01918D2A
:1003F000228D892F90E0805C9F4F821B91098F7323
:100400009927089586E392E00E94F60121E0892B66
:1004100009F420E0822F0895FC01848DDF01A80FEC
:10042000B11DA35ABF4F2C91848D90E001968F731C
:100430009927848FA689B7892C93A089B1898C913B
:1004400080648C93938D848D981306C00288F38901
:10045000E02D80818F7D80830895EF92FF920F932E
:100460001F93CF93DF93EC0181E0888F9B8D8C8D60
:10047000981305C0E889F989808185FD24C0F62E8E
:100480000B8D10E00F5F1F4F0F731127E02E8C8D27
:10049000E8120CC00FB607FCFACFE889F989808111
:1004A00085FFF5CFCE010E940C02F1CF8B8DFE01AE
:1004B000E80FF11DE35AFF4FF0820B8FEA89FB89A9
:1004C0008081806207C0EE89FF896083E889F989AD
:1004D00080818064808381E090E0DF91CF911F91E3
:1004E0000F91FF90EF900895CF93DF93EC01888DEB
:1004F0008823C9F0EA89FB89808185FD05C0A88928
:10050000B9898C9186FD0FC00FB607FCF5CF8081AD
:1005100085FFF2CFA889B9898C9185FFEDCFCE01F7
:100520000E940C02E7CFDF91CF91089580E090E028
:10053000892B29F00E94020281110C940000089579
:100540000F931F93CF93DF938C01C0E0D0E0C017CF
:10055000D107B4F461E08DE00E94DE0064EF71E049
:1005600080E090E00E946F0160E08DE00E94DE007C
:1005700064EF71E080E090E00E946F012196E7CF88
:10058000DF91CF911F910F910895009769F0FC01C1
:1005900001900020E9F73197AF01481B590BBC01CE
:1005A00086E392E00C94A90180E090E00895CF9357
:1005B000DF930E94C502EC0180E191E00E94C50238
:1005C0008C0F9D1FDF91CF9108958F929F92AF92D4
:1005D000BF920F931F93CF93DF93CDB7DEB7A19751
:1005E0000FB6F894DEBF0FBECDBF19A2423008F49B
:1005F0004AE08E010F5D1F4F842E912CA12CB12C4F
:10060000A50194010E949507E62FB901CA01015086
:100610001109EA3014F4E05D01C0E95CD801EC9303
:10062000232B242B252B61F7C8010E94C502A1961C
:100630000FB6F894DEBF0FBECDBFDF91CF911F91F3
:100640000F91BF90AF909F908F900895CF92DF92BF
:10065000EF92FF92CF93DF936B017C01E091360222
:10066000F09137020190F081E02D6DE286E392E097
:100670000995EC0166277727CB016C197D098E0956
:100680009F094AE00E94E5028C0F9D1FDF91CF91E8
:10069000FF90EF90DF90CF9008950C94C502CF9318
:1006A000DF93BC01990F880B990B97FF03C00E9441
:1006B000260303C04AE00E94E502EC0180E191E0DC
:1006C0000E94C5028C0F9D1FDF91CF910895BC0140
:1006D000990F880B990B97FD0C9426034AE00C9414
:1006E000E50284E090E00E94A00283E191E00E9494
:1006F0004D038EE190E00E94670386E191E00E9445
:10070000D70260E375E780E090E00E946F0182E02D
:1007100090E00E94A00289E191E00E94D70260E08F
:1007200084E00C94DE000E94BD071F920F920FB66A
:100730000F9211242F933F938F939F93AF93BF9367
:1007400080912E0290912F02A0913002B09131023F
:1007500030912D0223E0230F2D3720F40196A11DA7
:10076000B11D05C026E8230F0296A11DB11D2093DF
:100770002D0280932E0290932F02A0933002B0930B
:1007800031028091320290913302A0913402B091F3
:1007900035020196A11DB11D809332029093330260
:1007A000A0933402B0933502BF91AF919F918F9186
:1007B0003F912F910F900FBE0F901F9018951F9291
:1007C0000F920FB60F9211242F933F934F935F9385
:1007D0006F937F938F939F93AF93BF93EF93FF9309
:1007E00086E392E00E940C02FF91EF91BF91AF91DE
:1007F0009F918F917F916F915F914F913F912F9139
:100800000F900FBE0F901F9018951F920F920FB66A
:100810000F9211242F938F939F93EF93FF93E09167
:100820004602F09147028081E0914C02F0914D0226
:1008300082FD12C0908180914F028F5F8F73209153
:100840005002821751F0E0914F02F0E0EA5CFD4F58
:10085000958F80934F0201C08081FF91EF919F910E
:100860008F912F910F900FBE0F901F901895789435
:1008700084B5826084BD84B5816084BD85B58260A5
:1008800085BD85B5816085BD80916E008160809356
:100890006E001092810080918100826080938100BF
:1008A00080918100816080938100809180008160CF
:1008B000809380008091B10084608093B10080912A
:1008C000B00081608093B00080917A008460809352
:1008D0007A0080917A00826080937A0080917A0019
:1008E000816080937A0080917A00806880937A009A
:1008F0001092C10060E082E00E940E0160E083E09F
:100900000E940E0161E084E00E940E0161E085E03A
:100910000E940E0161E086E00E940E0161E087E026
:100920000E940E0161E088E00E940E0162E08AE010
:100930000E940E0161E08DE00E940E0160E084E003
:100940000E94DE0060E085E00E94DE0060E086E05C
:100950000E94DE0060E087E00E94DE0060E088E048
:100960000E94DE0060E08DE00E94DE00E091460221
:10097000F091470282E08083E0914202F0914302CD
:100980001082E0914402F09145028FEC8083109236
:100990004E02E0914A02F0914B0286E08083E091A2
:1009A0004802F0914902808180618083E091480291
:1009B000F0914902808188608083E0914802F09143
:1009C0004902808180688083E0914802F091490269
:1009D00080818F7D808389E291E00E94D70288E345
:1009E00091E00E94D70206E010E081E090E00E94D2
:1009F000A00282E00E94B50021E0892B09F420E0EA
:100A000020932C0283E00E94B50021E0892B09F499
:100A100020E020932B028AE00E94B50021E0892B80
:100A200009F420E020932A0285E691E00E944D031C
:100A300080912C0290E00E9467038BE691E00E9477
:100A40004D0380912B0290E00E94670383E791E0C1
:100A50000E944D0380912A0290E00E944F03209152
:100A60002C0290912B0280912A02211193C19111A5
:100A7000E2C1882309F4E1C165E070E080E090E024
:100A80000E946F0182E00E94B500D1E0892B09F439
:100A9000D0E0D0932C0283E00E94B500C1E0892B06
:100AA00009F4C0E0C0932B028AE00E94B50021E067
:100AB000892B09F420E020932A02D11100C2C11130
:100AC000FEC1222309F4FBC11092290210922802D0
:100AD0008BE791E00E94D7028CE891E00E94D70258
:100AE00083E090E00E94A00261E084E00E94DE00CA
:100AF00064EF71E080E090E00E946F018EE891E089
:100B00000E94D70261E085E00E94DE0060E273E0AF
:100B100080E090E00E946F0160E085E00E94DE00CE
:100B200064EF71E080E090E00E946F018091280204
:100B30009091290204970CF07EC082E090E00E9420
:100B4000A00288E991E00E94D70261E08DE00E9456
:100B5000DE0061E086E00E94DE0060ED77E080E08C
:100B600090E00E946F0160E086E00E94DE0060E09D
:100B70008DE00E94DE0083EA91E00E94D7028AEBBA
:100B800091E00E944D0380ED97E00E94670381ECA5
:100B900091E00E94D70284EC91E00E94D70260EDC0
:100BA00077E080E090E00E946F0183E00E94B50052
:100BB00021E0892B09F420E020932B02222311F15C
:100BC00061E087E00E94DE0060E273E080E090E098
:100BD0000E946F0160E087E00E94DE00109329020E
:100BE0000093280280ED91E00E944D03809128023D
:100BF0009091290201960E944F038BED91E00E9493
:100C0000D70294CF81E090E00E94A002C091280218
:100C1000D0912902CE010196909329028093280257
:100C200068E873E180E090E00E946F01CE010296D7
:100C30000E944F037BCF83E00E94B50021E0892B07
:100C400009F420E020932B02211139C065E070E007
:100C500080E090E00E946F0183E00E94B50021E0F7
:100C6000892B09F420E020932B02211128C060E099
:100C700085E00E94DE0060E086E00E94DE0060E029
:100C800087E00E94DE0060E088E00E94DE0084E0F1
:100C90000E94B500892B21F060E084E00E94DE0014
:100CA00086EE91E00E94D70285E090E00E94A002CB
:100CB00068EB7BE080E090E00E946F01F1CF82E082
:100CC0000E94B500D1E0892B09F4D0E0D0932C022A
:100CD00083E00E94B500C1E0892B09F4C0E0C09315
:100CE0002B028AE00E94B50021E0892B09F420E064
:100CF00020932A02D111E3C0CC2309F4E0C02223BF
:100D000009F4DDC065E070E080E090E00E946F01D2
:100D100082E00E94B500D1E0892B09F4D0E0D093A5
:100D20002C0283E00E94B500C1E0892B09F4C0E0E9
:100D3000C0932B028AE00E94B50021E0892B09F4C0
:100D400020E020932A02D11121C0CC2309F4B7C09E
:100D5000222309F4B4C083E191E00E944D038FE0A7
:100D600090E00E94670386E191E00E94D70268E963
:100D70007AE380E090E00E946F0161E088E00E94E9
:100D8000DE0082EF91E00E94D70299C0CC2309F4E3
:100D900096C04EC0992309F44EC0882309F44DC073
:100DA00065E070E080E090E00E946F0182E00E94C8
:100DB000B500D1E0892B09F4D0E0D0932C0283E078
:100DC0000E94B500C1E0892B09F4C0E0C0932B025A
:100DD0008AE00E94B50021E0892B09F420E02093ED
:100DE0002A02DD2309F46BC0CC2309F468C0222356
:100DF00009F465C08FEF91E00E94D70283E191E092
:100E00000E944D038AE090E00E94670386E191E032
:100E10000E94D70260E177E280E090E00E946F01DB
:100E200060E088E00E94DE008EE092E00E94D7023F
:100E30000E94710344C0811142C08AE00E94B50043
:100E400021E0892B09F420E020932A02211137C0E8
:100E500065E070E080E090E00E946F018AE00E940F
:100E6000B50021E0892B09F420E020932A0221110A
:100E700026C060E085E00E94DE0060E086E00E941F
:100E8000DE0060E087E00E94DE0060E088E00E9413
:100E9000DE0084E00E94B500019711F40E94710306
:100EA0008DE192E00E94D70282E090E00E94A002D1
:100EB00068EE73E080E090E00E946F01F1CF68EE91
:100EC00073E080E090E00E946F010E9496028DCD59
:100ED000E6E3F2E01382128288EE93E0A0E0B0E055
:100EE00084839583A683B78384E091E09183808394
:100EF00085EC90E09587848784EC90E097878687DF
:100F000080EC90E0918B808B81EC90E0938B828BD6
:100F100082EC90E0958B848B86EC90E0978B868BAF
:100F2000118E128E138E148E0895A1E21A2EAA1B12
:100F3000BB1BFD010DC0AA1FBB1FEE1FFF1FA21789
:100F4000B307E407F50720F0A21BB30BE40BF50B86
:100F5000661F771F881F991F1A9469F7609570950F
:100F6000809590959B01AC01BD01CF010895EE0FD6
:100F7000FF1F0590F491E02D099481E090E0F89432
:080F80000C94C207F894FFCFA6
:100F8800000000002D02A901F601D401E801740255
:100F98000D0A003A200020630053544F5020474563
:100FA8004E455241544F5241004155544F204745F8
:100FB8004E455241544F520068747470733A2F2F43
:100FC8006769746875622E636F6D2F737332732F40
:100FD8004175746F47656E657261746F72417264B2
:100FE80075696E6F00434554622000202047454EC6
:100FF800412000202053544F502000535441525454
:101008002047454E455241544F5241003100706FC0
:1010180064736F73206F6E005354415254455220CD
:101028004F4E00737461727465722074696D656FD8
:101038007574206D6F646520300064656C61792873
:1010480000293B0053544152544552204F46460014
:101058005354415254204F4B202000706F64736FDB
:1010680073206F6666004552524F52204D4F544FC1
:101078005200434F4E54414B544F52204F4E007034
:101088006F796176696C61732043455462004B4FF8
:101098004E4154414B544F52204F46460045525200
:0810A8004F522053544F500039
:00000001FF
