:100000000C9462000C948A000C948A000C948A0070
:100010000C948A000C948A000C948A000C948A0038
:100020000C948A000C948A000C948A000C948A0028
:100030000C948A000C948A000C948A000C948A0018
:100040000C94FE030C948A000C94CC030C94A6032D
:100050000C948A000C948A000C948A000C948A00F8
:100060000C948A000C948A000000000024002700F1
:100070002A0000000000250028002B0000000000DE
:1000800023002600290004040404040404040202DA
:100090000202020203030303030301020408102007
:1000A0004080010204081020010204081020000012
:1000B0000008000201000003040700000000000027
:1000C0000000520711241FBECFEFD8E0DEBFCDBF26
:1000D00011E0A0E0B1E0ECE5FFE002C005900D9278
:1000E000A23FB107D9F722E0A2EFB1E001C01D9213
:1000F000AD39B207E1F710E0C2E6D0E004C02197C5
:10010000FE010E94A107C136D107C9F70E94480429
:100110000C94AC070C940000CF92DF92EF92FF9208
:100120000F931F93CF93DF936C017A018B01C0E093
:10013000D0E0CE15DF0589F0D8016D918D01D60193
:10014000ED91FC910190F081E02DC6010995892B7C
:1001500011F47E0102C02196ECCFC701DF91CF914F
:100160001F910F91FF90EF90DF90CF900895089529
:1001700080E090E00895FC01538D448D252F30E000
:10018000842F90E0821B930B541710F0CF960895A4
:1001900001970895FC01918D828D981761F0828DF1
:1001A000DF01A80FB11D5D968C91928D9F5F9F73AB
:1001B000928F90E008958FEF9FEF0895FC01918D4D
:1001C000828D981731F0828DE80FF11D858D90E0BA
:1001D00008958FEF9FEF0895FC01918D228D892F57
:1001E00090E0805C9F4F821B91098F73992708953F
:1001F00080E092E00E94EC0021E0892B09F420E0ED
:10020000822F0895FC01848DDF01A80FB11DA35A30
:10021000BF4F2C91848D90E001968F739927848F26
:10022000A689B7892C93A089B1898C9180648C931D
:10023000938D848D981306C00288F389E02D808108
:100240008F7D80830895EF92FF920F931F93CF933A
:10025000DF93EC0181E0888F9B8D8C8D981305C016
:10026000E889F989808185FD24C0F62E0B8D10E088
:100270000F5F1F4F0F731127E02E8C8DE8120CC0FB
:100280000FB607FCFACFE889F989808185FFF5CFA1
:10029000CE010E940201F1CF8B8DFE01E80FF11D0E
:1002A000E35AFF4FF0820B8FEA89FB8980818062DD
:1002B00007C0EE89FF896083E889F98980818064BD
:1002C000808381E090E0DF91CF911F910F91FF90AB
:1002D000EF900895CF93DF93EC01888D8823C9F0C8
:1002E000EA89FB89808185FD05C0A889B9898C913F
:1002F00086FD0FC00FB607FCF5CF808185FFF2CFDA
:10030000A889B9898C9185FFEDCFCE010E940201A9
:10031000E7CFDF91CF91089580E090E0892B29F01D
:100320000E94F80081110C9400000895833081F040
:1003300028F4813099F08230A1F008958730A9F037
:100340008830B9F08430D1F4809180008F7D03C073
:10035000809180008F7780938000089584B58F7797
:1003600002C084B58F7D84BD08958091B0008F77E1
:1003700003C08091B0008F7D8093B0000895CF932B
:10038000DF93282F30E0F901E255FF4F8491F90106
:10039000E656FF4FD491F901EA57FF4FC491CC23A1
:1003A00091F081110E949601EC2FF0E0EE0FFF1FFB
:1003B000E458FF4FA591B491EC91ED2381E090E0DA
:1003C00021F480E002C080E090E0DF91CF910895B9
:1003D0001F93CF93DF93282F30E0F901E255FF4FB1
:1003E0008491F901E656FF4FD491F901EA57FF4F86
:1003F000C491CC23C9F0162F81110E949601EC2FD5
:10040000F0E0EE0FFF1FEE58FF4FA591B4918FB7AC
:10041000F894111105C09C91ED2FE095E92302C0DD
:10042000EC91ED2BEC938FBFDF91CF911F9108954D
:10043000CF93DF9390E0FC01E656FF4F2491FC013F
:10044000EA57FF4F8491882361F190E0880F991F4C
:10045000FC01E859FF4FC591D491FC01EE58FF4FC4
:10046000A591B491611109C09FB7F8948881209536
:1004700082238883EC912E230BC0623061F49FB7F6
:10048000F8943881822F809583238883EC912E2BDA
:100490002C939FBF06C08FB7F894E8812E2B28833A
:1004A0008FBFDF91CF9108953FB7F8948091F70106
:1004B0009091F801A091F901B091FA0126B5A89B9D
:1004C00005C02F3F19F00196A11DB11D3FBFBA2FE6
:1004D000A92F982F8827820F911DA11DB11DBC0146
:1004E000CD0142E0660F771F881F991F4A95D1F70B
:1004F00008958F929F92AF92BF92CF92DF92EF9228
:10050000FF926B017C010E9454024B015C01C114FB
:10051000D104E104F104F1F00E945402DC01CB01AA
:1005200088199909AA09BB09883E9340A105B1051C
:1005300070F321E0C21AD108E108F10888EE880EB4
:1005400083E0981EA11CB11CC114D104E104F10484
:1005500019F7DDCFFF90EF90DF90CF90BF90AF9075
:100560009F908F9008950F931F93CF93DF938C01EB
:10057000C0E0D0E0C017D107B4F461E08DE00E9484
:10058000E80164EF71E080E090E00E94790260E0B1
:100590008DE00E94E80164EF71E080E090E00E944D
:1005A00079022196E7CFDF91CF911F910F910895A6
:1005B000009769F0FC0101900020E9F73197AF0145
:1005C000481B590BBC0180E092E00C948C0080E049
:1005D00090E00895CF93DF930E94D802EC0182E16E
:1005E00091E00E94D8028C0F9D1FDF91CF9108955A
:1005F0008F929F92AF92BF920F931F93CF93DF93EF
:10060000CDB7DEB7A1970FB6F894DEBF0FBECDBF52
:1006100019A2423008F44AE08E010F5D1F4F842E6C
:10062000912CA12CB12CA50194010E947F07E62FEB
:10063000B901CA0101501109EA3014F4E05D01C0AA
:10064000E95CD801EC93232B242B252B61F7C801FF
:100650000E94D802A1960FB6F894DEBF0FBECDBFA0
:10066000DF91CF911F910F91BF90AF909F908F908E
:100670000895CF92DF92EF92FF92CF93DF936B01B9
:100680007C01E0910002F09101020190F081E02DE7
:100690006DE280E092E00995EC0166277727CB01B7
:1006A0006C197D098E099F094AE00E94F8028C0F9F
:1006B0009D1FDF91CF91FF90EF90DF90CF90089535
:1006C000CF93DF93BC01990F880B990B97FF03C061
:1006D0000E94390303C04AE00E94F802EC0182E163
:1006E00091E00E94D8028C0F9D1FDF91CF91089559
:1006F000BC01990F880B990B97FD0C9439034AE0C4
:100700000C94F80284E090E00E94B30285E191E04D
:100710000E94D8028EE190E00E94780388E191E087
:100720000E94EA0260E375E780E090E00E947902AF
:1007300082E090E00E94B3028BE191E00E94EA0225
:1007400060E084E00C94E8010E94A7071F920F92DA
:100750000FB60F9211242F933F934F935F936F9394
:100760007F938F939F93AF93BF93EF93FF9380E01B
:1007700092E00E940201FF91EF91BF91AF919F9192
:100780008F917F916F915F914F913F912F910F903A
:100790000FBE0F901F9018951F920F920FB60F92D9
:1007A00011242F938F939F93EF93FF93E091100267
:1007B000F09111028081E0911602F091170282FD02
:1007C00012C09081809119028F5F8F7320911A025D
:1007D000821751F0E0911902F0E0E050FE4F958F42
:1007E0008093190201C08081FF91EF919F918F91B9
:1007F0002F910F900FBE0F901F9018951F920F9280
:100800000FB60F9211242F933F938F939F93AF9323
:10081000BF938091F3019091F401A091F501B09103
:10082000F6013091F20123E0230F2D3720F40196D9
:10083000A11DB11D05C026E8230F0296A11DB11D03
:100840002093F2018093F3019093F401A093F501BA
:10085000B093F6018091F7019091F801A091F90110
:10086000B091FA010196A11DB11D8093F7019093FB
:10087000F801A093F901B093FA01BF91AF919F9154
:100880008F913F912F910F900FBE0F901F90189551
:10089000789484B5826084BD84B5816084BD85B55B
:1008A000826085BD85B5816085BD80916E00816067
:1008B00080936E001092810080918100826080930D
:1008C000810080918100816080938100809180000F
:1008D0008160809380008091B10084608093B1003A
:1008E0008091B00081608093B00080917A00846034
:1008F00080937A0080917A00826080937A00809160
:100900007A00816080937A0080917A008068809379
:100910007A001092C10060E082E00E94180260E05C
:1009200083E00E94180261E084E00E94180261E006
:1009300085E00E94180261E086E00E94180261E0F2
:1009400087E00E94180261E088E00E94180262E0DD
:100950008AE00E94180261E08DE00E94180260E0C7
:1009600084E00E94E80160E085E00E94E80160E028
:1009700086E00E94E80160E087E00E94E80160E014
:1009800088E00E94E80160E08DE00E94E801E091CB
:100990001002F091110282E08083E0910C02F0914C
:1009A0000D021082E0910E02F0910F028FEC808315
:1009B00010921802E0911402F091150286E08083F3
:1009C000E0911202F0911302808180618083E091B6
:1009D0001202F0911302808188608083E0911202FC
:1009E000F0911302808180688083E0911202F0917F
:1009F000130280818F7D80838BE291E00E94EA0266
:100A00008AE391E00E94EA0206E010E081E090E0D3
:100A10000E94B30282E00E94BF0121E0892B09F409
:100A200020E02093FF0183E00E94BF0121E0892B99
:100A300009F420E02093FE018AE00E94BF0121E03A
:100A4000892B09F420E02093FD0187E691E00E94C4
:100A5000D8028091FF0190E00E9478038DE691E03A
:100A60000E94D8028091FE0190E00E94780385E701
:100A700091E00E94D8028091FD0190E00E94600305
:100A80002091FF019091FE018091FD0121116CC127
:100A90009111BBC1882309F4BAC165E070E080E020
:100AA00090E00E94790282E00E94BF01D1E0892B90
:100AB00009F4D0E0D093FF0183E00E94BF01C1E0C0
:100AC000892B09F4C0E0C093FE018AE00E94BF01B7
:100AD00021E0892B09F420E02093FD01D111D9C137
:100AE000C111D7C1222309F4D4C18DE791E00E943E
:100AF000EA028EE891E00E94EA0283E090E00E9420
:100B0000B30261E084E00E94E80164EF71E080E0FC
:100B100090E00E94790280E991E00E94EA0261E09F
:100B200085E00E94E80160E273E080E090E00E94CE
:100B3000790260E085E00E94E80164EF71E080E006
:100B400090E00E947902C091FB01D091FC01C43079
:100B5000D1050CF05AC082E090E00E94B30261E03F
:100B600086E00E94E80160ED77E080E090E00E947E
:100B7000790260E086E00E94E80160ED77E080E0C5
:100B800090E00E94790283E00E94BF0121E0892B5E
:100B900009F420E02093FE01222311F161E087E0B7
:100BA0000E94E80160E273E080E090E00E94790238
:100BB00060E087E00E94E8011093FC010093FB01D4
:100BC0008AE991E00E94D8028091FB019091FC019A
:100BD00001960E94600385EA91E00E94EA02B3CF89
:100BE00081E090E00E94B302CE0101969093FC0157
:100BF0008093FB0168E873E180E090E00E94790255
:100C0000CE0102960E9460039ECF83E00E94BF0146
:100C100021E0892B09F420E02093FE01211139C045
:100C200065E070E080E090E00E94790283E00E943D
:100C3000BF0121E0892B09F420E02093FE0121115E
:100C400028C060E085E00E94E80160E086E00E9444
:100C5000E80160E087E00E94E80160E088E00E942F
:100C6000E80184E00E94BF01892B21F060E084E06C
:100C70000E94E80180EB91E00E94EA0285E090E0AA
:100C80000E94B30268EB7BE080E090E00E94790272
:100C9000F1CF82E00E94BF01D1E0892B09F4D0E0BE
:100CA000D093FF0183E00E94BF01C1E0892B09F4CA
:100CB000C0E0C093FE018AE00E94BF0121E0892BC1
:100CC00009F420E02093FD01D111E3C0CC2309F405
:100CD000E0C0222309F4DDC065E070E080E090E030
:100CE0000E94790282E00E94BF01D1E0892B09F4C1
:100CF000D0E0D093FF0183E00E94BF01C1E0892BC7
:100D000009F4C0E0C093FE018AE00E94BF0121E027
:100D1000892B09F420E02093FD01D11121C0CC23BF
:100D200009F4B7C0222309F4B4C085E191E00E9420
:100D3000D8028FE090E00E94780388E191E00E9461
:100D4000EA0268E97AE380E090E00E94790261E0DB
:100D500088E00E94E8018CEB91E00E94EA0299C0D1
:100D6000CC2309F496C04EC0992309F44EC08823C1
:100D700009F44DC065E070E080E090E00E947902E7
:100D800082E00E94BF01D1E0892B09F4D0E0D0932A
:100D9000FF0183E00E94BF01C1E0892B09F4C0E09C
:100DA000C093FE018AE00E94BF0121E0892B09F473
:100DB00020E02093FD01DD2309F46BC0CC2309F46E
:100DC00068C0222309F465C089EC91E00E94EA0220
:100DD00085E191E00E94D8028AE090E00E947803C9
:100DE00088E191E00E94EA0260E177E280E090E031
:100DF0000E94790260E088E00E94E80188ED91E0BD
:100E00000E94EA020E94820344C0811142C08AE02B
:100E10000E94BF0121E0892B09F420E02093FD010D
:100E2000211137C065E070E080E090E00E94790217
:100E30008AE00E94BF0121E0892B09F420E0209381
:100E4000FD01211126C060E085E00E94E80160E01C
:100E500086E00E94E80160E087E00E94E80160E02F
:100E600088E00E94E80184E00E94BF01019711F42C
:100E70000E94820387EE91E00E94EA0282E090E005
:100E80000E94B30268EE73E080E090E00E94790275
:100E9000F1CF68EE73E080E090E00E9479020E945A
:100EA0008C01B4CDE0E0F2E01382128288EE93E090
:100EB000A0E0B0E084839583A683B78384E091E0CB
:100EC0009183808385EC90E09587848784EC90E023
:100ED0009787868780EC90E0918B808B81EC90E007
:100EE000938B828B82EC90E0958B848B86EC90E0E8
:100EF000978B868B118E128E138E148E0895A1E21D
:100F00001A2EAA1BBB1BFD010DC0AA1FBB1FEE1F83
:100F1000FF1FA217B307E407F50720F0A21BB30BCE
:100F2000E40BF50B661F771F881F991F1A9469F74A
:100F300060957095809590959B01AC01BD01CF01A6
:100F40000895EE0FFF1F0590F491E02D099481E0C4
:0C0F500090E0F8940C94AC07F894FFCFEC
:100F5C000000000023018C00BB006A01EC00CA00F9
:100F6C00DE000D0A003A200020630053544F50203D
:100F7C0047454E455241544F5241004155544F2024
:100F8C0047454E455241544F520068747470733A41
:100F9C002F2F6769746875622E636F6D2F737332B0
:100FAC00732F4175746F47656E657261746F724112
:100FBC00726475696E6F00434554622000202047AF
:100FCC00454E412000202053544F50200053544193
:100FDC0052542047454E455241544F524100310026
:100FEC00706F64736F73206F6E00535441525420B2
:100FFC004F4B202000706F64736F73206F66660018
:10100C004552524F52204D4F544F5200434F4E5465
:10101C00414B544F52204F4E00706F796176696C82
:10102C0061732043455462004B4F4E4154414B5425
:10103C004F52204F4646004552524F522053544F68
:02104C00500052
:00000001FF
